:03000000020E6687
:0C0E6600787FE4F6D8FD758151020EADD6
:10119D0054494D454F555400726420616472255871
:0C11AD002C6C656E25640A00FFFF00003A
:0C125200014E0002270000034F49440039
:1011B900758920759850758DFD858D8BE4F587D2DD
:0611C900AFD2ACD28E2271
:10120900438901758CD4758ACDD2AFD2A9D28C22EB
:0E1219007FD47EA07D50DDFEDEFADFF6000001
:0112270022A4
:0612280014F9120C52FF44
:08122E008F993099FDC299224D
:1010E7008B0C8A0D890EED1DAE0470011CD3940084
:1010F700EE648094804011AB0C050EE50EAA0D70CE
:0911070002050D12122880DE22FF
:10117E008B0C8A0D890EAB0CAA0DA90E120C5260A7
:0F118E000D050EE50E7002050D12122880E822E5
:100D020078087C007D007BFF7A1179B57E007F0434
:100D1200120C2C438E40438E801211B9121209E537
:100D220026B4050B1211CF7FAA12122EE4F526E586
:100D320026B40319D3E52894E8E527648094834018
:100D42000CE4F5267BFF7A11799D12117EE526B41B
:100D520001177B007A00793E852211AF24AE23125F
:100D62000FEC7FAA12122E8062E5266404702C7F9B
:100D7200107E271211667FE87E031211667B007ACD
:100D8200007908751104E4FFFE120EF27B007A006E
:100D920079087D047C001210E78030E526B4022E2B
:100DA200750FFF7510117511A5852312852413AFD8
:100DB20022EF3395E0F5148F157B007A00792A1221
:100DC200085C7B007A00792A12117EE4F526D29023
:030DD200020D21EE
:100DD50085504F8F50852529E54FB44116E550B410
:100DE5004411752502752603E4F54FF550F54EF5CA
:100DF50027F528E54FB45416E550B445117525037C
:100E0500752604E4F54FF550F54EF527F528E54F21
:100E1500B45717E550B45212E4F525F522752603AB
:100E2500F54FF550F54EF527F528E54FB45216E583
:100E350050B44411752501752603E4F54FF550F5B9
:100E45004EF527F528E54FB44516E550B452117512
:100E55002504752605E4F54FF550F54EF527F528DB
:010E6500226A
:100F7100AD07E52664037072F527F528E5256402BF
:100F8100702CE54E14600E047024EDFF3395E0F5EE
:100F9100238F248019E524FEEDFB3395E0FAE42B41
:100FA100F524EE3AF523E4F5267FAA12122EE52563
:100FB1007028E54E70048D228020C3E5226480F8FC
:100FC100E54E6480985009743D254EF8A605800AC7
:100FD100743D254EF8A605752601E525B40109E500
:0B0FE1004E70058D22752602054E2281
:0300230002107751
:10107700C0E0C0D075D000C000C002C003C005C02A
:0310870006C00799
:10108A00309812C298AF99E5267005120DD58007DF
:07109A00120F718002C299E0
:1010A100D007D006D005D003D002D000D0D0D0E0F8
:0110B100320C
:09126C000528E52870020527227F
:03000B00021236A8
:0E123600C0E0758CD4758ACD12126CD0E032F7
:0B115B00D2927F037E00121166D29139
:10116600E4FDFCC3ED9FEE6480F8EC6480985007C4
:071176000DBD00010C80EC2F
:01117D00224F
:0E1244000012115BC292121166C29102116675
:0D125F0000C291C29212115DD2920211667E
:081137001212447F6C1210B289
:10113F0000C291D292007F0A7E00121166D2917F77
:0C114F0003121166121166C292C29122B6
:1011E50000C2917F037E00121166C292121161C284
:0211F500912245
:1011F70000C2917F037E00121166D292121161C262
:02120700912232
:0210B200AB078A
:1010B40000E4FAC29174807E00A802088006CEA2E1
:1010C400E713CE13D8F8FFEBFD3395E05EFEEF5D3A
:1010D4004E6004D2928002C29212115D0ABA08D301
:0210E400C291B7
:0110E60022E7
:10103B0000E4FAC29112115B3092107480A802087E
:10104B008003A2E713D8FB4203800F7480A8020829
:10105B008003A2E713D8FBF452037F037E00121127
:0B106B00660ABA08CEC292C291AF0321
:011076002257
:0A0FEC008E0C8F0D8B0E8A0F8910FA
:100FF600121137E50CFF1210B212113FAF0D12108D
:10100600B212113FE4F512C3E5116480F8E51264EB
:101016008098501EAB0EAA0FA910AF12EF3395E0C1
:101026008F82F583120C6BFF1210B212113F05125C
:0510360080D502125FED
:0A0EF2008E0C8F0D8B0E8A0F8910F5
:100EFC00121137E50CFF1210B212113FAF0D121088
:100F0C00B212113F1212447F647E0012116612124B
:100F1C00447F6D1210B212113FE4F512E51114C3A7
:100F2C006480F8E512648098501E12103BAB0EAA38
:100F3C000FA910E512FD3395E08D82F583EF120CAD
:100F4C00981211E5051280D412103BAB0EAA0FA912
:100F5C0010E512FD3395E08D82F583EF120C98129B
:050F6C0011F702125F05
:1011CF001211377FF31210B212113FE4FF1210B257
:0611DF0012113F02125F35
:100E7200020D02E493A3F8E493A34003F68001F287
:100E820008DFF48029E493A3F85407240CC8C33381
:100E9200C4540F4420C8834004F456800146F6DF50
:100EA200E4800B0102040810204080901252E47E7C
:100EB200019360BCA3FF543F30E509541FFEE49345
:100EC200A360010ECF54C025E060A840B8E493A30C
:100ED200FAE493A3F8E493A3C8C582C8CAC583CA37
:100EE200F0A3C8C582C8CAC583CADFE9DEE780BEEF
:01125E00008F
:100B5C00E709F608DFFA8046E709F208DFFA803E7B
:100B6C0088828C83E709F0A3DFFA8032E309F60868
:100B7C00DFFA8078E309F208DFFA807088828C83D0
:100B8C00E309F0A3DFFA806489828A83E0A3F60884
:100B9C00DFFA805889828A83E0A3F208DFFA804C5E
:100BAC0080D280FA80C680D4806980F28033801035
:100BBC0080A680EA809A80A880DA80E280CA80339E
:100BCC0089828A83ECFAE493A3C8C582C8CCC58316
:100BDC00CCF0A3C8C582C8CCC583CCDFE9DEE780E6
:100BEC000D89828A83E493A3F608DFF9ECFAA9F065
:100BFC00EDFB2289828A83ECFAE0A3C8C582C8CCBB
:100C0C00C583CCF0A3C8C582C8CCC583CCDFEADED3
:100C1C00E880DB89828A83E493A3F208DFF980CC35
:100C2C0088F0EF60010E4E60C388F0ED2402B4042E
:100C3C000050B9F582EB2402B4040050AF232345D5
:060C4C008223900BAC7343
:100C5200BB010689828A83E0225002E722BBFE02A0
:090C6200E32289828A83E49322D3
:100C6B00BB010CE58229F582E5833AF583E022503E
:100C7B0006E92582F8E622BBFE06E92582F8E22288
:0D0C8B00E58229F582E5833AF583E49322A2
:100C9800F8BB010DE58229F582E5833AF583E8F092
:100CA800225006E92582C8F622BBFE05E92582C83E
:020CB800F22226
:10080000E51B240FF8E6051B22780C300702780F51
:10081000E475F001120CCC020C522000EB7F2ED2BA
:10082000008018EF540F2490D43440D4FF30040BD0
:10083000EF24BFB41A0050032461FFE51C600215C9
:100840001C051FE51F7002051E30070D780CE475AE
:10085000F001120CCCEF020CBA0211107403D20793
:100860008003E4C207F51B8B0C8A0D890EE4F51C8E
:10087000F51EF51FE51C60077F2012083B80F5750B
:100880001DFFC201C200C202C203C205C206C208E5
:10089000120809FF700D3007057F0012084CAF1FCA
:1008A000AE1E22B4255FC2D5C204120809FF24D0AF
:1008B000B40A00501A75F00A781C30D50508B6FF46
:1008C0000106C6A426F620D5047002D20380D924DE
:1008D000CFB41A00EF5004C2E5D204020A4CD20190
:1008E00080C6D20080C0D20280BCD2D580BAD205E8
:1008F00080B47F2012083B2002077401B51C004021
:10090000F1120800FF12083B020874D208D20680D8
:1009100095120800FB120800FA120800F94A4B7001
:1009200006791D7A0B7BFF20022EE51C602A7E00D3
:100930008E82758300120C6B60060EEE651D70F0E2
:10094000C2D5EBC0E0EAC0E0E9C0E0EE120A93D005
:10095000E0F9D0E0FAD0E0FB120C52FF60AAEBC045
:10096000E0EAC0E0E9C0E012083BD0E02401F9D0A1
:10097000E03400FAD0E0FBE51D0460DCD51DD98031
:10098000877BFF7A0A798FD202809C791080027966
:1009900008C206C2088008D2D5790A8004790AC242
:1009A000D5E51D047002F51DE4FAFDFEFF120800F6
:1009B000FC7B08200113120800FD7B1030000A1296
:1009C0000800FE120800FF7B20EC3382D592D55040
:1009D00013C3E43000069FFFE49EFEE42001039D64
:1009E000FDE49CFCE4CBF8C201EC700CCFCECDCC86
:1009F000E824F8F870F38017C3EF33FFEE33FEED11
:100A000033FDEC33FCEB33FB994002FB0FD8E9EBF1
:100A1000300105F8D0E0C448B201C0E00AEC4D4E08
:100A20004F78207B0070C2EAB51D0040BCC0E012C8
:100A30000A95D0F0D0E0200104C4C0E0C4B201C0E7
:100A4000F0120824D0F0D5F0EB020874120CDC0987
:100A50001153098B5808E24C08DE42098F4F099761
:0F0A60004409974908F743099D550981460981C3
:100A6F00450981470B3D5008E62D08EA2E090D2B4D
:100A7F0008EE23090B200B262A08A64800000905BB
:100A8F003F3F3F00790AA2D5200314300509B91062
:100A9F00020404B9080104A2D52006025001042063
:100AAF0002689202B51C005034C0E07F2030031959
:100ABF007F30A20272067205500F120AECC202C2F8
:100ACF0006C205C2087F30800F300503E9C0E0126F
:100ADF00083B300503D0E0F9D0E0B51CCC3005174A
:100AEF007F30B9100C12083B7F583004077F788095
:100AFF0003B9080312083B3002057F2D02083B7F24
:100B0F00202008F87F2B2006F322920280CF286E38
:100B1F00756C6C2900D2011208003001F8C20178FF
:100B2F001C30D50108F60208A62D5043495812086B
:100B3F00002403B405004001E4900B389312082CF5
:0D0B4F00743A12082CD203751C0402098BA5
:100CBA00BB010689828A83F0225002F722BBFE0119
:020CCA00F32213
:100CCC00FAE6FB0808E6F925F0F618E6CA3AF62229
:100CDC00D083D082F8E4937012740193700DA3A3A7
:100CEC0093F8740193F5828883E4737402936860BB
:060CFC00EFA3A3A380DFBB
:10111000EFB40A07740D12111B740A309811A899C4
:10112000B8130CC2983098FDA899C298B811F6303F
:0711300099FDC299F5992217
:00000001FF
