:030000000200BF3C
:0C00BF00787FE4F6D8FD75812D02010663
:1003C0000116000210000008080034455667003688
:0103D0002309
:10000E00E4F51F9001FF74FFF09001FBE4F0900106
:10001E00FE74FFF09001FAE4F09001FD74FFF09091
:10002E0001F9E4F09001FC74FFF09001F8E4F0A9FE
:10003E0090FAFB0412019AA9900412019AA9901445
:10004E0012019AA9900412019AA9901412019AA968
:10005E00900412019AA9901412019AA99004120107
:10006E009AA9901412019AA9900412019AA99014B7
:10007E0012019AA9900412019A051FE51F75F0034B
:10008E0012014BAFF0EF7004F58080037580FF7B9B
:10009E00007A0079087525087D537F40120291E49D
:1000AE00F5907590FFF5A075A0FFF5B075B0FF80C7
:0100BE00C879
:1003F600758910758D4B758BFFD2AFD2ABD28E221D
:03000B000203AD40
:1003AD00C0E00511E51170020510758C4C758AFFC2
:0303BD00D0E0325B
:0B037400D2927F037E0012037FD29123
:10037F00E4FDFCC3ED9FEE6480F8EC6480985007B9
:07038F000DBD00010C80EC24
:010396002244
:0E04060000120374C29212037FC29102037FA0
:0D04140000C291C292120376D29202037FC1
:080350001204067F6C1202DFAB
:1003580000C291D292007F0A7E0012037FD2917F61
:0C0368000312037F12037FC292C2912295
:1003D20000C2917F037E0012037FC29212037AC28F
:0203E200912266
:1003E40000C2917F037E0012037FD29212037AC26D
:0203F400912254
:0C02D300EF3395E08F82F58312016DFF80
:0202DF00AB076B
:1002E10000E4FAC29174807E00A802088006CEA2C2
:1002F100E713CE13D8F8FFEBFD3395E05EFEEF5D1B
:100301004E6004D2928002C2921203760ABA08D3D6
:02031100C29197
:0103130022C7
:1003140000E4FAC2911203743092107480A80208A7
:100324008003A2E713D8FB4203800F7480A802085D
:100334008003A2E713D8FBF452037F037E00120369
:0B0344007F0ABA08CEC292C291AF033C
:01034F00228B
:08024D008B198A1A891BAC060B
:100255008C1EEFF9120350AF1E1202DF120358AFC6
:10026500011202DF120358E4F51DC3E51C6480F892
:10027500E51D6480985012AB19AA1AA91BAF1D126F
:0C02850002D3120358051D80E10204148E
:0A0291008F208D218B228A238924FF
:10029B00120350AF201202DF120358AF211202DFFC
:1002AB00120358E4F526C3E5256480F8E52664803F
:1002BB00985012AB22AA23A924AF261202D3120301
:0802CB0058052680E10204142D
:0A01CE008E278F288B298A2A892B9F
:1001D800120350E527FF1202DF120358AF2812025C
:1001E800DF1203581204067F647E0012037F120494
:1001F800067F6D1202DF120358E4F52DE52C14C3B7
:100208006480F8E52D648098501E120314AB29AA67
:100218002AA92BE52DFD3395E08D82F583EF120198
:10022800AC1203D2052D80D4120314AB29AA2AA933
:100238002BE52DFD3395E08D82F583EF1201AC128D
:0502480003E4020414B0
:100397001203507FF31202DF120358E4FF1202DF49
:0603A700120358020414C9
:1000CB0002000EE493A3F8E493A34003F68001F23D
:1000DB0008DFF48029E493A3F85407240CC8C33336
:1000EB00C4540F4420C8834004F456800146F6DF05
:1000FB00E4800B01020408102040809003C0E47ED2
:10010B00019360BCA3FF543F30E509541FFEE493F9
:10011B00A360010ECF54C025E060A840B8E493A3C0
:10012B00FAE493A3F8E493A3C8C582C8CAC583CAEB
:10013B00F0A3C8C582C8CAC583CADFE9DEE780BEA3
:0103D100002B
:10014B00C2D530F707B2D563F0FF05F030E70CB23C
:10015B00D5F4048463F0FF05F080018430D502F4FC
:02016B0004226C
:10016D00BB010CE58229F582E5833AF583E0225047
:10017D0006E92582F8E622BBFE06E92582F8E22291
:0D018D00E58229F582E5833AF583E49322AB
:10019A00BB010689828A83F0225002F722BBFE0144
:0201AA00F3223E
:1001AC00F8BB010DE58229F582E5833AF583E8F089
:1001BC00225006E92582C8F622BBFE05E92582C835
:0201CC00F2221D
:00000001FF
